:020000040800F2
:1000000000500020B9040008490400084F0400080B
:10001000550400085B0400086104000800000000AB
:10002000000000000000000000000000670400085D
:1000300073040008000000007F0400088B0400081F
:100040000105000801050008010500080105000878
:100050000105000801050008010500080105000868
:100060000105000801050008010500080105000858
:100070000105000801050008010500080105000848
:100080000105000801050008010500080105000838
:100090000105000801050008010500080105000828
:1000A0000105000801050008010500080105000818
:1000B0000105000801050008010500080105000808
:1000C00001050008010500080105000801050008F8
:1000D0000105000899040008010500080105000851
:1000E00001050008010500080105000800000000E6
:1000F0000000000000000000000000000000000000
:0C01000000000000000000005FF808F1A3
:10010C0010B5054C237833B9044B13B10448AFF345
:10011C0000800123237010BD180000200000000097
:10012C006824000808B5034B1BB103490348AFF31F
:10013C00008008BD000000001C000020682400089E
:10014C0080B586B000AF00F0D7F900F043F800F0AE
:10015C00B1F800F085F81A4A03211A4801F01EFA8A
:10016C0001221949174801F032FB184B9B69174AB9
:10017C0043F010039361154B9B6903F010037B60F4
:10018C007B6807F1080300221A605A609A60DA60F3
:10019C004FF40053BB600123FB6002237B6107F12A
:1001AC00080319460A4800F0EDFB4FF400510848CB
:1001BC0000F06CFD4FF4FA7000F000FAF5E700BFA8
:1001CC00050300083400002000000020001002404D
:1001DC000010014080B590B000AF07F11803282241
:1001EC000021184602F032F93B1D00221A605A60B9
:1001FC009A60DA601A610123BB614FF48033FB61B2
:10020C0000233B620123BB6202237B634FF48033E8
:10021C00BB634FF4E013FB6307F11803184600F0BF
:10022C004FFD0346002B01D000F07CF80F237B60C0
:10023C000223BB600023FB604FF480633B6100230F
:10024C007B613B1D0221184600F0BCFF0346002BCE
:10025C0001D000F067F800BF4037BD4680BD0000FC
:10026C0080B500AF114B124A1A60104B4FF4E132BB
:10027C005A600E4B00229A600C4B0022DA600B4B3A
:10028C0000221A61094B0C225A61084B00229A6118
:10029C00064B0022DA61054801F022F90346002BD7
:1002AC0001D000F03FF800BF80BD00BF340000203B
:1002BC000038014080B483B000AF0E4B9B690D4AEF
:1002CC0043F0200393610B4B9B6903F020037B608D
:1002DC007B68084B9B69074A43F004039361054B09
:1002EC009B6903F004033B603B6800BF0C37BD46C1
:1002FC0080BC70470010024080B582B000AF7860BF
:10030C00642301220649786801F0DEF901220449D0
:10031C00786801F05CFA00BF0837BD4680BD00BFAD
:10032C000000002080B400AF72B600BFFEE70000F2
:10033C0080B485B000AF154B9B69144A43F00103A0
:10034C009361124B9B6903F00103BB60BB680F4BBD
:10035C00DB690E4A43F08053D3610C4BDB6903F02D
:10036C0080537B607B680A4B5B68FB60FB6823F007
:10037C00E063FB60FB6843F00073FB60044AFB68BE
:10038C00536000BF1437BD4680BC7047001002405C
:10039C000000014080B588B000AF786007F1100311
:1003AC0000221A605A609A60DA607B681B68204AE7
:1003BC00934239D11F4B9B691E4A43F4804393618E
:1003CC001C4B9B6903F48043FB60FB68194B9B69D6
:1003DC00184A43F004039361164B9B6903F0040322
:1003EC00BB60BB684FF400733B6102237B6103234A
:1003FC00FB6107F1100319460F4800F0C3FA4FF4E4
:10040C0080633B6100237B610023BB6107F1100318
:10041C001946094800F0B6FA00220121252000F007
:10042C00C8F9252000F0E1F900BF2037BD4680BD9A
:10043C0000380140001002400008014080B400AFB9
:10044C00FEE780B400AFFEE780B400AFFEE780B4F7
:10045C0000AFFEE780B400AFFEE780B400AF00BF92
:10046C00BD4680BC704780B400AF00BFBD4680BCA9
:10047C00704780B400AF00BFBD4680BC704780B5EC
:10048C0000AF00F07FF800BF80BD000080B500AF6A
:10049C00024801F0C1F900BF80BD00BF340000204C
:1004AC0080B400AF00BFBD4680BC7047FFF7F8FFBB
:1004BC000B480C490C4A002302E0D458C4500433B6
:1004CC00C4188C42F9D3094A094C002301E013608B
:1004DC000432A242FBD301F095FFFFF731FE7047C7
:1004EC000000002018000020B42400081800002090
:1004FC00B0000020FEE7000080B500AF084B1B6881
:10050C00074A43F010031360032000F047F90F2053
:10051C0000F008F8FFF70CFF0023184680BD00BF61
:10052C000020024080B582B000AF7860124B1A6890
:10053C00124B1B7819464FF47A73B3FBF1F3B2FBF1
:10054C00F3F3184600F05FF90346002B01D00123AA
:10055C000EE07B680F2B0AD8002279684FF0FF3031
:10056C0000F027F9064A7B681360002300E00123A2
:10057C0018460837BD4680BD0C0000201400002032
:10058C001000002080B400AF054B1B781A46054BB9
:10059C001B681344034A136000BFBD4680BC704700
:1005AC0014000020AC00002080B400AF024B1B688C
:1005BC001846BD4680BC7047AC00002080B584B0A6
:1005CC0000AF7860FFF7F0FFB8607B68FB60FB68FA
:1005DC00B3F1FF3F05D00A4B1B781A46FB68134456
:1005EC00FB6000BFFFF7E0FF0246BB68D31AFA6856
:1005FC009A42F7D800BF00BF1037BD4680BD00BF80
:10060C001400002080B485B000AF78607B6803F0E4
:10061C000703FB600C4BDB68BB60BA684FF6FF034B
:10062C001340BB60FB681A02BB68134343F0BF6303
:10063C0043F40033BB60044ABB68D36000BF14377B
:10064C00BD4680BC704700BF00ED00E080B400AF39
:10065C00044BDB681B0A03F007031846BD4680BC3D
:10066C00704700BF00ED00E080B483B000AF0346DC
:10067C00FB7197F90730002B0BDBFB7903F01F02A2
:10068C00064997F907305B09012000FA02F241F89C
:10069C00232000BF0C37BD4680BC704700E100E052
:1006AC0080B483B000AF03463960FB7197F9073013
:1006BC00002B0ADB3B68DAB20C4997F907301201C0
:1006CC00D2B20B4483F800230AE03B68DAB2084943
:1006DC00FB7903F00F03043B1201D2B20B441A76E0
:1006EC0000BF0C37BD4680BC704700BF00E100E086
:1006FC0000ED00E080B489B000AFF860B9607A60BA
:10070C00FB6803F00703FB61FB69C3F10703042BD0
:10071C0028BF0423BB61FB690433062B02D9FB6998
:10072C00033B00E000237B614FF0FF32BB6902FA10
:10073C0003F3DA43BB681A407B699A404FF0FF31F0
:10074C007B6901FA03F3D9437B680B4013431846CA
:10075C002437BD4680BC704780B582B000AF78604E
:10076C007B68013BB3F1807F01D301230FE00A4A80
:10077C007B68013B53600F214FF0FF30FFF790FF78
:10078C00054B00229A60044B07221A60002318467E
:10079C000837BD4680BD00BF10E000E080B582B0D8
:1007AC0000AF78607868FFF72DFF00BF0837BD46B3
:1007BC0080BD80B586B000AF0346B9607A60FB732C
:1007CC0000237B61FFF742FF78617A68B96878692A
:1007DC00FFF790FF024697F90F3011461846FFF7C6
:1007EC005FFF00BF1837BD4680BD80B582B000AF3B
:1007FC000346FB7197F907301846FFF735FF00BF2A
:10080C000837BD4680BD80B582B000AF786078688F
:10081C00FFF7A2FF034618460837BD4680BD80B4DB
:10082C0085B000AF78600023FB737B6893F82130B0
:10083C00DBB2022B08D07B6804229A637B6800220F
:10084C0083F82020012320E07B681B681A687B68F2
:10085C001B6822F00E021A607B681B681A687B68A2
:10086C001B6822F001021A607B681A6C7B68DB6BD8
:10087C00012101FA02F25A607B68012283F82120DF
:10088C007B68002283F82020FB7B18461437BD467A
:10089C0080BC704780B584B000AF78600023FB73D8
:1008AC007B6893F82130DBB2022B05D07B680422E5
:1008BC009A630123FB7351E07B681B681A687B68A1
:1008CC001B6822F00E021A607B681B681A687B6832
:1008DC001B6822F001021A607B681B68224A934253
:1008EC0029D07B681B68214A934222D07B681B6805
:1008FC001F4A93421AD07B681B681E4A934212D03F
:10090C007B681B681C4A93420AD07B681B681B4A95
:10091C00934202D14FF480130EE04FF080730BE042
:10092C004FF4803308E04FF4805305E04FF48073AC
:10093C0002E0102300E00123114A53607B6801227E
:10094C0083F821207B68002283F820207B685B6B76
:10095C00002B03D07B685B6B78689847FB7B184651
:10096C001037BD4680BD00BF080002401C0002408D
:10097C003000024044000240580002406C0002402B
:10098C000000024080B48BB000AF78603960002367
:10099C007B6200233B6269E101227B6A02FA03F36A
:1009AC00FB613B681B68FA691340BB61BA69FB6960
:1009BC009A4240F058813B685B689A4A93425ED0F9
:1009CC00984A934275D8984A934258D0964A934283
:1009DC006FD8964A934252D0944A934269D8944A1B
:1009EC0093424CD0924A934263D8924A934246D057
:1009FC00904A93425DD8122B2AD8122B59D801A2B7
:100A0C0052F823F08B0A0008650A0008770A0008E0
:100A1C00B90A0008BF0A0008BF0A0008BF0A00088C
:100A2C00BF0A0008BF0A0008BF0A0008BF0A000876
:100A3C00BF0A0008BF0A0008BF0A0008BF0A000866
:100A4C00BF0A0008BF0A00086D0A0008810A0008E6
:100A5C00794A934213D02CE03B68DB683B6229E077
:100A6C003B68DB6804333B6224E03B68DB6808339B
:100A7C003B621FE03B68DB680C333B621AE03B686F
:100A8C009B68002B02D104233B6213E03B689B68FC
:100A9C00012B05D108233B627B68FA691A6109E0D6
:100AAC0008233B627B68FA695A6103E000233B62CE
:100ABC0000E000BFBB69FF2B01D87B6801E07B68BD
:100ACC0004337B61BB69FF2B02D87B6A9B0002E07D
:100ADC007B6A083B9B003B617B691A680F213B6971
:100AEC0001FA03F3DB431A40396A3B6901FA03F359
:100AFC001A437B691A603B685B6803F08053002BD8
:100B0C0000F0B1804D4B9B694C4A43F0010393615B
:100B1C004A4B9B6903F00103BB60BB68484A7B6A84
:100B2C009B08023352F82330FB607B6A03F003030B
:100B3C009B000F2202FA03F3DB43FA681340FB60BD
:100B4C007B68404A934213D07B683F4A93420DD056
:100B5C007B683E4A934207D07B683D4A934201D161
:100B6C00032306E0042304E0022302E0012300E057
:100B7C0000237A6A02F0030292009340FA6813434E
:100B8C00FB602F497B6A9B080233FA6841F82320EB
:100B9C003B685B6803F48013002B06D02D4B9A68DE
:100BAC002C49BB6913438B6006E02A4B9A68BB69DE
:100BBC00DB43284913408B603B685B6803F40013EC
:100BCC00002B06D0234BDA682249BB691343CB6058
:100BDC0006E0204BDA68BB69DB431E491340CB604F
:100BEC003B685B6803F40033002B06D0194B5A6842
:100BFC001849BB6913434B6006E0164B5A68BB6936
:100C0C00DB43144913404B603B685B6803F480334F
:100C1C00002B21D00F4B1A680E49BB6913430B6094
:100C2C0021E000BF00003210000031100000221043
:100C3C0000002110000012100000111000100240E2
:100C4C000000014000080140000C01400010014070
:100C5C0000140140000401400B4B1A68BB69DB43D4
:100C6C00094913400B607B6A01337B623B681A684D
:100C7C007B6A22FA03F3002B7FF48EAE00BF00BF19
:100C8C002C37BD4680BC70470004014080B485B051
:100C9C0000AF78600B467B807B68DB68FB607A88F2
:100CAC00FB6813401A04FB68D9437B880B401A433A
:100CBC007B681A6100BF1437BD4680BC70470000CA
:100CCC0080B586B000AF78607B68002B01D1012322
:100CDC0072E27B681B6803F00103002B00F0878035
:100CEC00924B5B6803F00C03042B0CD08F4B5B68AE
:100CFC0003F00C03082B12D18C4B5B6803F480338C
:100D0C00B3F5803F0BD1894B1B6803F40033002BE8
:100D1C006CD07B685B68002B68D101234CE27B684C
:100D2C005B68B3F5803F06D1804B1B687F4A43F468
:100D3C00803313602EE07B685B68002B0CD17B4BFF
:100D4C001B687A4A23F480331360784B1B68774A0C
:100D5C0023F4802313601DE07B685B68B3F5A02F40
:100D6C000CD1724B1B68714A43F4802313606F4B98
:100D7C001B686E4A43F4803313600BE06B4B1B68AB
:100D8C006A4A23F480331360684B1B68674A23F468
:100D9C00802313607B685B68002B13D0FFF704FC87
:100DAC00386108E0FFF700FC02463B69D31A642B5C
:100DBC0001D9032300E25D4B1B6803F40033002BC5
:100DCC00F0D014E0FFF7F0FB386108E0FFF7ECFB24
:100DDC0002463B69D31A642B01D90323ECE1534B34
:100DEC001B6803F40033002BF0D100E000BF7B68DC
:100DFC001B6803F00203002B63D04C4B5B6803F0C1
:100E0C000C03002B0BD0494B5B6803F00C03082B35
:100E1C001CD1464B5B6803F48033002B16D1434B3B
:100E2C001B6803F00203002B05D07B681B69012BA8
:100E3C0001D00123C0E13D4B1B6823F0F8027B6815
:100E4C005B69DB00394913430B603AE07B681B6933
:100E5C00002B20D0364B01221A60FFF7A5FB38611E
:100E6C0008E0FFF7A1FB02463B69D31A022B01D91C
:100E7C000323A1E12D4B1B6803F00203002BF0D0E0
:100E8C002A4B1B6823F0F8027B685B69DB0027495F
:100E9C0013430B6015E0264B00221A60FFF784FB0E
:100EAC00386108E0FFF780FB02463B69D31A022B3E
:100EBC0001D9032380E11D4B1B6803F00203002BB7
:100ECC00F0D17B681B6803F00803002B3AD07B68D9
:100EDC009B69002B19D0174B01221A60FFF764FB9A
:100EEC00386108E0FFF760FB02463B69D31A022B1E
:100EFC0001D9032360E10D4B5B6A03F00203002B65
:100F0C00F0D0012000F0CEFA1CE00A4B00221A604F
:100F1C00FFF74AFB38610FE0FFF746FB02463B69DF
:100F2C00D31A022B08D9032346E100BF001002405C
:100F3C000000424280044242924B5B6A03F002037F
:100F4C00002BE9D17B681B6803F00403002B00F035
:100F5C00A6800023FB758B4BDB6903F08053002BC1
:100F6C000DD1884BDB69874A43F08053D361854BA5
:100F7C00DB6903F08053BB60BB680123FB75824BBC
:100F8C001B6803F48073002B18D17F4B1B687E4ABF
:100F9C0043F480731360FFF707FB386108E0FFF739
:100FAC0003FB02463B69D31A642B01D9032303E1EB
:100FBC00754B1B6803F48073002BF0D07B68DB68E7
:100FCC00012B06D16F4B1B6A6E4A43F0010313626F
:100FDC002DE07B68DB68002B0CD16A4B1B6A694ADD
:100FEC0023F001031362674B1B6A664A23F0040368
:100FFC0013621CE07B68DB68052B0CD1614B1B6A10
:10100C00604A43F0040313625E4B1B6A5D4A43F073
:10101C00010313620BE05B4B1B6A5A4A23F001037A
:10102C001362584B1B6A574A23F0040313627B6804
:10103C00DB68002B15D0FFF7B7FA38610AE0FFF731
:10104C00B3FA02463B69D31A41F28832934201D972
:10105C000323B1E04B4B1B6A03F00203002BEED0D1
:10106C0014E0FFF7A1FA38610AE0FFF79DFA024697
:10107C003B69D31A41F28832934201D903239BE096
:10108C00404B1B6A03F00203002BEED1FB7D012BBE
:10109C0005D13C4BDB693B4A23F08053D3617B6821
:1010AC00DB69002B00F08780364B5B6803F00C0388
:1010BC00082B61D07B68DB69022B46D1334B0022B5
:1010CC001A60FFF771FA386108E0FFF76DFA024613
:1010DC003B69D31A022B01D903236DE0294B1B6802
:1010EC0003F00073002BF0D17B681B6AB3F5803FD3
:1010FC0008D1244B5B6823F400327B689B68214940
:10110C0013434B601F4B5B6823F474127B68196AA2
:10111C007B685B6A0B431B4913434B601B4B0122DF
:10112C001A60FFF741FA386108E0FFF73DFA024612
:10113C003B69D31A022B01D903233DE0114B1B68E9
:10114C0003F00073002BF0D035E0104B00221A6036
:10115C00FFF72AFA386108E0FFF726FA02463B69E6
:10116C00D31A022B01D9032326E0064B1B6803F08C
:10117C000073002BF0D11EE07B68DB69012B07D1DB
:10118C00012319E000100240007000406000424250
:10119C000B4B5B68FB60FB6803F480327B681B6A5B
:1011AC009A4206D1FB6803F470127B685B6A9A4220
:1011BC0001D0012300E0002318461837BD4680BD3E
:1011CC000010024080B584B000AF786039607B6855
:1011DC00002B01D10123D0E06A4B1B6803F00703FD
:1011EC003A689A4210D9674B1B6823F0070265498D
:1011FC003B6813430B60634B1B6803F007033A68AF
:10120C009A4201D00123B8E07B681B6803F002030B
:10121C00002B20D07B681B6803F00403002B05D047
:10122C00594B5B68584A43F4E06353607B681B6816
:10123C0003F00803002B05D0534B5B68524A43F470
:10124C0060535360504B5B6823F0F0027B689B68E3
:10125C004D4913434B607B681B6803F00103002B63
:10126C0040D07B685B68012B07D1474B1B6803F4AC
:10127C000033002B15D101237FE07B685B68022BC8
:10128C0007D1414B1B6803F00073002B09D10123DC
:10129C0073E03D4B1B6803F00203002B01D10123CB
:1012AC006BE0394B5B6823F003027B685B68364963
:1012BC0013434B60FFF778F9F8600AE0FFF774F915
:1012CC000246FB68D31A41F28832934201D90323B8
:1012DC0053E02D4B5B6803F00C027B685B689B0052
:1012EC009A42EBD1274B1B6803F007033A689A42EA
:1012FC0010D2244B1B6823F0070222493B6813438E
:10130C000B60204B1B6803F007033A689A4201D02C
:10131C00012332E07B681B6803F00403002B08D028
:10132C00194B5B6823F4E0627B68DB681649134356
:10133C004B607B681B6803F00803002B09D0124B31
:10134C005B6823F460527B681B69DB000E49134316
:10135C004B6000F021F802460B4B5B681B0903F055
:10136C000F030A49CB5C22FA03F3094A1360094BB9
:10137C001B681846FFF7D6F8002318461037BD46F1
:10138C0080BD00BF002002400010024080240008F5
:10139C000C0000201000002080B487B000AF0023A8
:1013AC00FB600023BB6000237B6100237B60002378
:1013BC003B611E4B5B68FB60FB6803F00C03042B6A
:1013CC0002D0082B03D027E0194B3B6127E0FB68C8
:1013DC009B0C03F00F03174AD35C7B60FB6803F490
:1013EC008033002B10D0114B5B685B0C03F00103B6
:1013FC00114AD35CBB607B680D4A03FB02F2BB68ED
:10140C00B2FBF3F37B6104E07B680C4A02FB03F351
:10141C007B617B693B6102E0054B3B6100BF3B6933
:10142C0018461C37BD4680BC704700BF00100240F8
:10143C0000127A0098240008A824000800093D0036
:10144C0080B400AF024B1B681846BD4680BC704789
:10145C000C00002080B500AFFFF7F2FF0246054BF1
:10146C005B681B0A03F007030349CB5C22FA03F306
:10147C00184680BD001002409024000880B500AFD3
:10148C00FFF7DEFF0246054B5B68DB0A03F0070340
:10149C000349CB5C22FA03F3184680BD00100240CE
:1014AC009024000880B485B000AF78600A4B1B68AC
:1014BC000A4AA2FB03235B0A7A6802FB03F3FB6074
:1014CC0000BFFB685A1EFA60002BF9D100BF00BFA9
:1014DC001437BD4680BC70470C000020D34D621001
:1014EC0080B582B000AF78607B68002B01D10123FE
:1014FC004DE07B6893F84130DBB2002B11D17B6857
:10150C00002283F84020786800F072FC7B681B6F27
:10151C00002B02D17B68204A1A677B681B6F7868A6
:10152C0098477B68242283F841207B681B68DA6823
:10153C007B681B6822F40052DA60786800F0D4FEF5
:10154C007B681B681A697B681B6822F490421A61DD
:10155C007B681B685A697B681B6822F02A025A61F7
:10156C007B681B68DA687B681B6842F40052DA609F
:10157C007B6800225A647B68202283F841207B68B8
:10158C00202283F842207B6800225A6300231846ED
:10159C000837BD4680BD00BFA103000880B487B0EA
:1015AC0000AFF8600B467A60FB720023FB757B681A
:1015BC00002B07D1FB685B6C43F02002FB685A647C
:1015CC0001237CE0FB6893F84130DBB2202B50D137
:1015DC00FB7A0C2B44D801A252F823F01D160008FC
:1015EC00251600082D160008351600083D160008B3
:1015FC00451600084D160008551600086D16000813
:10160C006D1600086D1600085D16000865160008BA
:10161C00FB687A689A6451E0FB687A68DA644DE09A
:10162C00FB687A681A6549E0FB687A685A6545E098
:10163C00FB687A689A6541E0FB687A68DA653DE098
:10164C00FB687A681A6639E0FB687A685A6635E096
:10165C00FB687A681A6731E0FB687A685A672DE094
:10166C00FB685B6C43F02002FB685A640123FB753A
:10167C0024E0FB6893F84130DBB2002B16D1FB7AE7
:10168C000B2B02D00C2B04D007E0FB687A681A678E
:10169C0014E0FB687A685A6710E0FB685B6C43F0F7
:1016AC002002FB685A640123FB7507E0FB685B6C46
:1016BC0043F02002FB685A640123FB75FB7D18463E
:1016CC001C37BD4680BC704780B58AB002AFF8604D
:1016DC00B9603B601346FB8000237B61FB6893F889
:1016EC004130DBB2202B6DD1BB68002B02D0FB88C4
:1016FC00002B01D1012366E0FB6800225A64FB68D1
:10170C00212283F84120FEF74FFF7861FB68FA88AD
:10171C009A84FB68FA88DA84FB689B68B3F5805F6F
:10172C0008D1FB681B69002B04D10023FB61BB684B
:10173C00BB6103E0BB68FB610023BB612AE03B6833
:10174C0000937B6900228021F86800F087FB034638
:10175C00002B01D0032336E0FB69002B0BD1BB69B6
:10176C001B881A46FB681B68C2F308025A60BB69E7
:10177C000233BB6107E0FB691A78FB681B685A608F
:10178C00FB690133FB61FB68DB8C9BB2013B9AB2BA
:10179C00FB68DA84FB68DB8C9BB2002BCFD13B68F7
:1017AC0000937B6900224021F86800F057FB034648
:1017BC00002B01D0032306E0FB68202283F8412094
:1017CC00002300E0022318462037BD4680BD80B5BB
:1017DC0084B000AFF860B9601346FB80FB6893F8E7
:1017EC004230DBB2202B12D1BB68002B02D0FB881D
:1017FC00002B01D101230BE0FB6800221A63FB884C
:10180C001A46B968F86800F097FB034600E002231B
:10181C0018461037BD4680BD80B5BAB000AF7860B1
:10182C007B681B681B68C7F8E4307B681B68DB6847
:10183C00C7F8E0307B681B685B69C7F8DC300023B5
:10184C00C7F8D8300023C7F8D430D7F8E43003F009
:10185C000F03C7F8D830D7F8D830002B0FD1D7F8F2
:10186C00E43003F02003002B09D0D7F8E03003F06C
:10187C002003002B03D0786800F076FC60E2D7F8E8
:10188C00D830002B00F0E180D7F8DC3003F00103F6
:10189C00002B06D1D7F8E03003F49073002B00F046
:1018AC00D480D7F8E43003F00103002B0BD0D7F829
:1018BC00E03003F48073002B05D07B685B6C43F045
:1018CC0001027B685A64D7F8E43003F00403002B60
:1018DC000BD0D7F8DC3003F00103002B05D07B686C
:1018EC005B6C43F002027B685A64D7F8E43003F077
:1018FC000203002B0BD0D7F8DC3003F00103002BD4
:10190C0005D07B685B6C43F004027B685A64D7F8A3
:10191C00E43003F00803002B11D0D7F8E03003F0CB
:10192C002003002B05D1D7F8DC3003F00103002B8A
:10193C0005D07B685B6C43F008027B685A647B685B
:10194C005B6C002B00F0F781D7F8E43003F0200338
:10195C00002B08D0D7F8E03003F02003002B02D086
:10196C00786800F001FC7B681B685B6903F040033E
:10197C00002B14BF01230023DBB2C7F8D4307B68E3
:10198C005B6C03F00803002B03D1D7F8D430002B89
:10199C0051D0786800F009FB7B681B685B6903F029
:1019AC004003002B42D07B681B681433C7F89C3073
:1019BC00D7F89C3053E8003FC7F89830D7F89830E8
:1019CC0023F04003C7F8D0307B681B681433D7F87A
:1019DC00D020C7F8A820C7F8A430D7F8A410D7F89F
:1019EC00A82041E80023C7F8A030D7F8A030002B7E
:1019FC00D9D17B68DB6B002B13D07B68DB6B804A07
:101A0C005A637B68DB6B1846FEF744FF0346002BDA
:101A1C0019D07B68DB6B5B6B7A68D26B104698478E
:101A2C0011E07B689B6D786898470CE07B689B6D38
:101A3C007868984707E07B689B6D786898477B6867
:101A4C0000225A6477E100BF75E17B681B6B012BA8
:101A5C0040F05181D7F8E43003F01003002B00F074
:101A6C004A81D7F8E03003F01003002B00F04381DB
:101A7C000023BB607B681B681B68BB607B681B68B2
:101A8C005B68BB60BB687B681B685B6903F04003E9
:101A9C00002B00F0B7807B68DB6B1B685B68A7F8DA
:101AAC00BE30B7F8BE30002B00F047817B689B8DB1
:101ABC00B7F8BE209A4280F040817B68B7F8BE2010
:101ACC00DA857B68DB6B9B69202B00F088807B6858
:101ADC001B680C33C7F88830D7F8883053E8003FC0
:101AEC00C7F88430D7F8843023F48073C7F8B83043
:101AFC007B681B680C33D7F8B820C7F89420C7F85C
:101B0C009030D7F89010D7F8942041E80023C7F80C
:101B1C008C30D7F88C30002BD9D17B681B681433F0
:101B2C007B677B6F53E8003F3B673B6F23F0010300
:101B3C00C7F8B4307B681B681433D7F8B420C7F8E7
:101B4C008020FB67F96FD7F8802041E80023BB6742
:101B5C00BB6F002BE1D17B681B6814333B663B6E7B
:101B6C0053E8003FFB65FB6D23F04003C7F8B03032
:101B7C007B681B681433D7F8B020FA66BB66B96E65
:101B8C00FA6E41E800237B667B6E002BE3D17B6809
:101B9C00202283F842207B6800221A637B681B6832
:101BAC000C33FB64FB6C53E8003FBB64BB6C23F051
:101BBC001003C7F8AC307B681B680C33D7F8AC202B
:101BCC00BA657B65796DBA6D41E800233B653B6D69
:101BDC00002BE3D17B68DB6B1846FEF720FE7B689D
:101BEC0002225A637B68DB6E7A68918D7A68D28D9B
:101BFC0092B28A1A92B21146786898479DE000BF5B
:101C0C007B2000087B689A8D7B68DB8D9BB2D31A96
:101C1C00A7F8CE307B68DB8D9BB2002B00F08F8059
:101C2C00B7F8CE30002B00F08A807B681B680C3331
:101C3C00BB63BB6B53E8003F7B637B6B23F49073FC
:101C4C00C7F8C8307B681B680C33D7F8C8207A6497
:101C5C003B64396C7A6C41E80023FB63FB6B002B13
:101C6C00E3D17B681B6814337B627B6A53E8003FCB
:101C7C003B623B6A23F00103C7F8C4307B681B68E6
:101C8C001433D7F8C4203A63FB62F96A3A6B41E823
:101C9C000023BB62BB6A002BE3D17B68202283F854
:101CAC0042207B6800221A637B681B680C333B6103
:101CBC003B6953E8003FFB60FB6823F01003C7F857
:101CCC00C0307B681B680C33D7F8C020FA61BB614D
:101CDC00B969FA6941E800237B617B69002BE3D188
:101CEC007B6802225A637B68DB6EB7F8CE20114604
:101CFC007868984723E0D7F8E43003F08003002B92
:101D0C0009D0D7F8E03003F08003002B03D07868BB
:101D1C0000F0C2F914E0D7F8E43003F04003002BD4
:101D2C000ED0D7F8E03003F04003002B08D07868D1
:101D3C0000F001FA04E000BF02E000BF00E000BFC9
:101D4C00E837BD4680BD00BF80B483B000AF78607B
:101D5C0000BF0C37BD4680BC704780B483B000AF69
:101D6C00786000BF0C37BD4680BC704780B483B030
:101D7C0000AF786000BF0C37BD4680BC704780B4A4
:101D8C0083B000AF786000BF0C37BD4680BC704795
:101D9C0080B483B000AF786000BF0C37BD4680BC08
:101DAC00704780B483B000AF786000BF0C37BD467D
:101DBC0080BC704780B483B000AF786000BF0C3734
:101DCC00BD4680BC704780B483B000AF786000BF64
:101DDC000C37BD4680BC704780B483B000AF7860D0
:101DEC000B467B8000BF0C37BD4680BC70470000A3
:101DFC0080B483B000AF78607B680F4A9A647B68CC
:101E0C000E4ADA647B680E4A1A657B680D4A5A657D
:101E1C007B680D4A9A657B680C4ADA657B680C4ACC
:101E2C001A667B680B4A5A667B680B4ADA6600BFF7
:101E3C000C37BD4680BC7047671D0008551D000857
:101E4C008B1D0008791D00089D1D0008AF1D0008A2
:101E5C00C11D0008D31D0008E51D000880B590B019
:101E6C0000AFF860B9603B601346FB7150E0BB6C8F
:101E7C00B3F1FF3F4CD0BB6C002B07D0FEF794FBAB
:101E8C0002463B68D31ABA6C9A4241D2FB681B6873
:101E9C000C33BB62BB6A53E8003F7B627B6A23F462
:101EAC00D073FB63FB681B680C33FA6B7A633B6380
:101EBC00396B7A6B41E80023FB62FB6A002BE5D19E
:101ECC00FB681B6814337B617B6953E8003F3B6103
:101EDC003B6923F00103BB63FB681B681433BA6BCB
:101EEC003A62FB61F9693A6A41E80023BB61BB695C
:101EFC00002BE5D1FB68202283F84120FB682022CF
:101F0C0083F84220FB68002283F8402003230FE073
:101F1C00FB681B681A68BB681340BA689A420CBF0E
:101F2C0001230023DBB21A46FB799A429FD000238F
:101F3C0018464037BD4680BD80B485B000AFF86010
:101F4C00B9601346FB80FB68BA689A62FB68FA8832
:101F5C009A85FB68FA88DA85FB6800225A64FB686C
:101F6C00222283F84220FB681B69002B07D0FB68F8
:101F7C001B68DA68FB681B6842F48072DA60FB68E5
:101F8C001B685A69FB681B6842F001025A61FB68C6
:101F9C001B68DA68FB681B6842F02002DA600023D9
:101FAC0018461437BD4680BC704780B495B000AF5E
:101FBC0078607B681B680C337B637B6B53E8003F5A
:101FCC003B633B6B23F49073FB647B681B680C33A3
:101FDC00FA6C3A64FB63F96B3A6C41E80023BB631F
:101FEC00BB6B002BE5D17B681B6814333B623B6AEF
:101FFC0053E8003FFB61FB6923F00103BB647B6882
:10200C001B681433BA6CFA62BB62B96AFA6A41E8AB
:10201C0000237B627B6A002BE5D17B681B6B012B59
:10202C0019D17B681B680C33FB60FB6853E8003FDD
:10203C00BB60BB6823F010037B647B681B680C33AC
:10204C007A6CBA617B617969BA6941E800233B61BA
:10205C003B69002BE5D17B68202283F842207B680A
:10206C0000221A6300BF5437BD4680BC704780B550
:10207C0084B000AF78607B685B6AFB60FB68002211
:10208C00DA85FB680022DA84FB689B6DF868984758
:10209C0000BF1037BD4680BD80B485B000AF7860FE
:1020AC007B6893F84130DBB2212B3ED17B689B6877
:1020BC00B3F5805F14D17B681B69002B10D17B6852
:1020CC001B6AFB60FB681B881A467B681B68C2F3A3
:1020DC0008025A607B681B6A9A1C7B681A6208E0CB
:1020EC007B681B6A591C7A6811621A787B681B68BA
:1020FC005A607B68DB8C9BB2013B9BB27A681946B9
:10210C00D184002B0FD17B681B68DA687B681B6855
:10211C0022F08002DA607B681B68DA687B681B68D7
:10212C0042F04002DA60002300E002231846143724
:10213C00BD4680BC704780B582B000AF78607B68CC
:10214C001B68DA687B681B6822F04002DA607B68E7
:10215C00202283F841207B68DB6C78689847002349
:10216C0018460837BD4680BD80B58CB000AF78608E
:10217C007B6893F84230DBB2222B40F0B0807B6856
:10218C009B68B3F5805F17D17B681B69002B13D15B
:10219C000023FB627B689B6ABB627B681B685B6885
:1021AC009BB2C3F308039AB2BB6A1A807B689B6A22
:1021BC009A1C7B689A6226E07B689B6AFB62002310
:1021CC00BB627B689B68B3F5805F07D07B689B68BC
:1021DC00002B0AD17B681B69002B06D17B681B681E
:1021EC005B68DAB2FB6A1A7008E07B681B685B6894
:1021FC00DBB203F07F03DAB2FB6A1A707B689B6A6E
:10220C005A1C7B689A627B68DB8D9BB2013B9BB24C
:10221C007A681946D185002B5FD17B681B68DA6818
:10222C007B681B6822F02002DA607B681B68DA6826
:10223C007B681B6822F48072DA607B681B685A69C1
:10224C007B681B6822F001025A617B68202283F8AC
:10225C0042207B6800225A637B681B6B012B36D1B2
:10226C007B6800221A637B681B680C337B617B697B
:10227C0053E8003F3B613B6923F010037B627B68B2
:10228C001B680C337A6A3A62FB61F9693A6A41E875
:10229C000023BB61BB69002BE5D17B681B681B6805
:1022AC0003F01003102B0AD10023FB607B681B6822
:1022BC001B68FB607B681B685B68FB60FB687B686A
:1022CC00DB6E7A68928D11467868984703E07B68DC
:1022DC005B6D78689847002302E0002300E002233E
:1022EC0018463037BD4680BD80B584B000AF7860ED
:1022FC007B681B681B6923F440517B68DA687B6838
:10230C001B680A431A617B689A687B681B691A43CD
:10231C007B685B691343BB607B681B68DB6823F4D9
:10232C00B05323F00C037A681268B9680B43D3607E
:10233C007B681B685B6923F440717B689A697B68D6
:10234C001B680A435A617B681B682C4A934203D171
:10235C00FFF794F8F86002E0FFF77CF8F860FA6891
:10236C0013469B0013449A001A447B685B689B00DD
:10237C00B2FBF3F3224AA2FB03235B091901FA68AF
:10238C0013469B0013449A001A447B685B689B00BD
:10239C00B2FBF3F21A4BA3FB02035B09642000FBB4
:1023AC0003F3D31A1B013233154AA2FB03235B0937
:1023BC0003F0F0031944FA6813469B0013449A0087
:1023CC001A447B685B689B00B2FBF3F20C4BA3FBDB
:1023DC0002035B09642000FB03F3D31A1B013233A5
:1023EC00074AA2FB03235B0903F00F027B681B68FF
:1023FC000A449A6000BF1037BD4680BD00380140CA
:10240C001F85EB5170B500260C4D0D4C641BA410B0
:10241C00A64209D100F022F800260A4D0A4C641B92
:10242C00A410A64205D170BD55F8043B984701365F
:10243C00EEE755F8043B98470136F2E7AC24000868
:10244C00AC240008AC240008B02400080346024465
:10245C00934200D1704703F8011BF9E7F8B500BFB0
:10246C00F8BC08BC9E467047F8B500BFF8BC08BC69
:04247C009E467047C1
:102480000000000000000000010203040607080924
:102490000000000001020304020304050607080906
:0C24A0000A0B0C0D0E0F101001020000C2
:0424AC0031010008F2
:0424B0000D01000812
:1024B40068656C6C6F20776F726C64000024F400A4
:0824C4001000000001000000FF
:04000005080004B932
:00000001FF
